{
  "contractName": "DappToken",
  "abi": [
    {
      "constant": true,
      "inputs": [],
      "name": "totalSupply",
      "outputs": [
        {
          "internalType": "uint256",
          "name": "",
          "type": "uint256"
        }
      ],
      "payable": false,
      "stateMutability": "view",
      "type": "function"
    },
    {
      "constant": false,
      "inputs": [],
      "name": "dappToken",
      "outputs": [],
      "payable": false,
      "stateMutability": "nonpayable",
      "type": "function"
    }
  ],
  "bytecode": "0x6080604052348015600f57600080fd5b5060a28061001e6000396000f3fe6080604052348015600f57600080fd5b506004361060325760003560e01c806318160ddd1460375780635eb186f8146053575b600080fd5b603d605b565b6040518082815260200191505060405180910390f35b60596061565b005b60005481565b620f424060008190555056fea265627a7a72315820ab8add7cb5c81d500301ef11f1791e3d3a08d316f2abdccc49a1fd9f0dc11ffc64736f6c63430005100032",
  "source": "pragma solidity ^0.5.0;\r\n\r\ncontract DappToken{\r\n    //Constructor\r\n    //set the total number of token\r\n    //Read the total number of token\r\n\r\n    uint256 public totalSupply;\r\n    \r\n    function dappToken() public{\r\n\r\n        totalSupply = 1000000;\r\n    }\r\n\r\n}",
  "sourcePath": "E:/REC 20/tokken_sale/contracts/DappToken.sol",
  "compiler": {
    "name": "solc",
    "version": "0.5.16+commit.9c3226ce.Emscripten.clang"
  },
  "schemaVersion": "3.3.3",
  "updatedAt": "2021-01-15T18:20:39.746Z",
  "networkType": "ethereum",
  "devdoc": {
    "methods": {}
  },
  "userdoc": {
    "methods": {}
  }
}