{
  "contractName": "DappToken",
  "abi": [
    {
      "inputs": [
        {
          "internalType": "uint256",
          "name": "_initialSupply",
          "type": "uint256"
        }
      ],
      "stateMutability": "nonpayable",
      "type": "constructor"
    },
    {
      "inputs": [
        {
          "internalType": "address",
          "name": "",
          "type": "address"
        }
      ],
      "name": "balanceOf",
      "outputs": [
        {
          "internalType": "uint256",
          "name": "",
          "type": "uint256"
        }
      ],
      "stateMutability": "view",
      "type": "function"
    },
    {
      "inputs": [],
      "name": "totalSupply",
      "outputs": [
        {
          "internalType": "uint256",
          "name": "",
          "type": "uint256"
        }
      ],
      "stateMutability": "view",
      "type": "function"
    }
  ],
  "bytecode": "0x608060405234801561001057600080fd5b506040516101993803806101998339818101604052602081101561003357600080fd5b8101908080519060200190929190505050806000803373ffffffffffffffffffffffffffffffffffffffff1673ffffffffffffffffffffffffffffffffffffffff16815260200190815260200160002081905550806001819055505060fc8061009d6000396000f3fe6080604052348015600f57600080fd5b506004361060325760003560e01c806318160ddd14603757806370a08231146053575b600080fd5b603d60a8565b6040518082815260200191505060405180910390f35b609260048036036020811015606757600080fd5b81019080803573ffffffffffffffffffffffffffffffffffffffff16906020019092919050505060ae565b6040518082815260200191505060405180910390f35b60015481565b6000602052806000526040600020600091509050548156fea264697066735822122054f02ff7df45349fe6ed73f4dd91e335a22fa23513c7cb023a32922999e66ccc64736f6c63430007040033",
  "immutableReferences": {},
  "source": "// SPDX-License-Identifier: MIT\r\npragma solidity ^0.7.4;\r\n\r\ncontract DappToken{\r\n    //Constructor\r\n    //set the total number of token\r\n    //Read the total number of token\r\n\r\n    mapping(address => uint256) public balanceOf;\r\n\r\n    uint256 public totalSupply;\r\n    \r\n    constructor (uint256 _initialSupply){\r\n        balanceOf[msg.sender] = _initialSupply;\r\n        totalSupply = _initialSupply;\r\n        //allocate the initial supply\r\n    }\r\n\r\n}",
  "sourcePath": "E:/REC 20/tokken_sale/contracts/DappToken.sol",
  "compiler": {
    "name": "solc",
    "version": "0.7.4+commit.3f05b770.Emscripten.clang"
  },
  "schemaVersion": "3.3.3",
  "updatedAt": "2021-01-17T19:14:35.970Z",
  "devdoc": {
    "kind": "dev",
    "methods": {},
    "version": 1
  },
  "userdoc": {
    "kind": "user",
    "methods": {},
    "version": 1
  }
}