{
  "contractName": "DappTokken",
  "abi": [
    {
      "constant": true,
      "inputs": [],
      "name": "totalSupply",
      "outputs": [
        {
          "internalType": "uint256",
          "name": "",
          "type": "uint256"
        }
      ],
      "payable": false,
      "stateMutability": "view",
      "type": "function"
    },
    {
      "constant": false,
      "inputs": [],
      "name": "dappTokken",
      "outputs": [],
      "payable": false,
      "stateMutability": "nonpayable",
      "type": "function"
    }
  ],
  "bytecode": "0x6080604052348015600f57600080fd5b5060a28061001e6000396000f3fe6080604052348015600f57600080fd5b506004361060325760003560e01c80630e0a9fdd14603757806318160ddd14603f575b600080fd5b603d605b565b005b60456067565b6040518082815260200191505060405180910390f35b620f4240600081905550565b6000548156fea265627a7a72315820182f8bb86de30c663952196a39ff33ea75de4eb3d7e3f033e3ef58f12424497864736f6c63430005100032",
  "source": "pragma solidity ^0.5.0;\r\n\r\ncontract DappTokken{\r\n    //Constructor\r\n    //set the total number of tokken\r\n    //Read the total number of tokken\r\n\r\n    uint256 public totalSupply;\r\n    \r\n    function dappTokken() public{\r\n\r\n        totalSupply = 1000000;\r\n    }\r\n\r\n}",
  "sourcePath": "E:/REC 20/tokken_sale/contracts/DappTokken.sol",
  "compiler": {
    "name": "solc",
    "version": "0.5.16+commit.9c3226ce.Emscripten.clang"
  },
  "schemaVersion": "3.3.3",
  "updatedAt": "2021-01-15T17:59:36.666Z",
  "devdoc": {
    "methods": {}
  },
  "userdoc": {
    "methods": {}
  }
}